{
  "contractName": "BEPToken",
  "abi": [
    {
      "inputs": [
        {
          "internalType": "string",
          "name": "token_name",
          "type": "string"
        },
        {
          "internalType": "string",
          "name": "short_symbol",
          "type": "string"
        },
        {
          "internalType": "uint8",
          "name": "token_decimals",
          "type": "uint8"
        },
        {
          "internalType": "uint256",
          "name": "token_totalSupply",
          "type": "uint256"
        }
      ],
      "stateMutability": "nonpayable",
      "type": "constructor"
    },
    {
      "anonymous": false,
      "inputs": [
        {
          "indexed": true,
          "internalType": "address",
          "name": "from",
          "type": "address"
        },
        {
          "indexed": true,
          "internalType": "address",
          "name": "to",
          "type": "address"
        },
        {
          "indexed": false,
          "internalType": "uint256",
          "name": "value",
          "type": "uint256"
        }
      ],
      "name": "Transfer",
      "type": "event"
    },
    {
      "anonymous": false,
      "inputs": [
        {
          "indexed": false,
          "internalType": "address",
          "name": "",
          "type": "address"
        },
        {
          "indexed": false,
          "internalType": "uint256",
          "name": "",
          "type": "uint256"
        },
        {
          "indexed": false,
          "internalType": "uint256",
          "name": "",
          "type": "uint256"
        }
      ],
      "name": "burned",
      "type": "event"
    },
    {
      "anonymous": false,
      "inputs": [
        {
          "indexed": false,
          "internalType": "address",
          "name": "",
          "type": "address"
        },
        {
          "indexed": false,
          "internalType": "uint256",
          "name": "",
          "type": "uint256"
        },
        {
          "indexed": false,
          "internalType": "uint256",
          "name": "",
          "type": "uint256"
        }
      ],
      "name": "minted",
      "type": "event"
    },
    {
      "inputs": [],
      "name": "_decimals",
      "outputs": [
        {
          "internalType": "uint8",
          "name": "",
          "type": "uint8"
        }
      ],
      "stateMutability": "view",
      "type": "function"
    },
    {
      "inputs": [],
      "name": "_name",
      "outputs": [
        {
          "internalType": "string",
          "name": "",
          "type": "string"
        }
      ],
      "stateMutability": "view",
      "type": "function"
    },
    {
      "inputs": [],
      "name": "_symbol",
      "outputs": [
        {
          "internalType": "string",
          "name": "",
          "type": "string"
        }
      ],
      "stateMutability": "view",
      "type": "function"
    },
    {
      "inputs": [],
      "name": "_totalSupply",
      "outputs": [
        {
          "internalType": "uint256",
          "name": "",
          "type": "uint256"
        }
      ],
      "stateMutability": "view",
      "type": "function"
    },
    {
      "inputs": [],
      "name": "owner",
      "outputs": [
        {
          "internalType": "address",
          "name": "",
          "type": "address"
        }
      ],
      "stateMutability": "view",
      "type": "function"
    },
    {
      "inputs": [],
      "name": "getName",
      "outputs": [
        {
          "internalType": "string",
          "name": "",
          "type": "string"
        }
      ],
      "stateMutability": "view",
      "type": "function"
    },
    {
      "inputs": [],
      "name": "getDecimals",
      "outputs": [
        {
          "internalType": "uint256",
          "name": "",
          "type": "uint256"
        }
      ],
      "stateMutability": "view",
      "type": "function"
    },
    {
      "inputs": [],
      "name": "getSymbol",
      "outputs": [
        {
          "internalType": "string",
          "name": "",
          "type": "string"
        }
      ],
      "stateMutability": "view",
      "type": "function"
    },
    {
      "inputs": [],
      "name": "getTotalSupply",
      "outputs": [
        {
          "internalType": "uint256",
          "name": "",
          "type": "uint256"
        }
      ],
      "stateMutability": "view",
      "type": "function"
    },
    {
      "inputs": [],
      "name": "getOwner",
      "outputs": [
        {
          "internalType": "address",
          "name": "",
          "type": "address"
        }
      ],
      "stateMutability": "view",
      "type": "function"
    },
    {
      "inputs": [
        {
          "internalType": "address",
          "name": "account",
          "type": "address"
        }
      ],
      "name": "balanceOf",
      "outputs": [
        {
          "internalType": "uint256",
          "name": "",
          "type": "uint256"
        }
      ],
      "stateMutability": "view",
      "type": "function"
    },
    {
      "inputs": [
        {
          "internalType": "address",
          "name": "account",
          "type": "address"
        },
        {
          "internalType": "uint256",
          "name": "amount",
          "type": "uint256"
        }
      ],
      "name": "mint",
      "outputs": [],
      "stateMutability": "nonpayable",
      "type": "function"
    },
    {
      "inputs": [
        {
          "internalType": "address",
          "name": "account",
          "type": "address"
        },
        {
          "internalType": "uint256",
          "name": "amount",
          "type": "uint256"
        }
      ],
      "name": "burn",
      "outputs": [],
      "stateMutability": "nonpayable",
      "type": "function"
    },
    {
      "inputs": [
        {
          "internalType": "address",
          "name": "recipient",
          "type": "address"
        },
        {
          "internalType": "uint256",
          "name": "amount",
          "type": "uint256"
        }
      ],
      "name": "transfer",
      "outputs": [
        {
          "internalType": "bool",
          "name": "",
          "type": "bool"
        }
      ],
      "stateMutability": "nonpayable",
      "type": "function"
    }
  ],
  "bytecode": "0x60806040523480156200001157600080fd5b5060405162001aab38038062001aab833981810160405281019062000037919062000384565b836004908162000048919062000675565b5082600390816200005a919062000675565b5081600260006101000a81548160ff021916908360ff1602179055508060018190555033600660006101000a81548173ffffffffffffffffffffffffffffffffffffffff021916908373ffffffffffffffffffffffffffffffffffffffff160217905550600154600560003373ffffffffffffffffffffffffffffffffffffffff1673ffffffffffffffffffffffffffffffffffffffff168152602001908152602001600020819055503373ffffffffffffffffffffffffffffffffffffffff16600073ffffffffffffffffffffffffffffffffffffffff167fddf252ad1be2c89b69c2b068fc378daa952ba7f163c4a11628f55a4df523b3ef6001546040516200016691906200076d565b60405180910390a3505050506200078a565b6000604051905090565b600080fd5b600080fd5b600080fd5b600080fd5b6000601f19601f8301169050919050565b7f4e487b7100000000000000000000000000000000000000000000000000000000600052604160045260246000fd5b620001e18262000196565b810181811067ffffffffffffffff82111715620002035762000202620001a7565b5b80604052505050565b60006200021862000178565b9050620002268282620001d6565b919050565b600067ffffffffffffffff821115620002495762000248620001a7565b5b620002548262000196565b9050602081019050919050565b60005b838110156200028157808201518184015260208101905062000264565b60008484015250505050565b6000620002a46200029e846200022b565b6200020c565b905082815260208101848484011115620002c357620002c262000191565b5b620002d084828562000261565b509392505050565b600082601f830112620002f057620002ef6200018c565b5b8151620003028482602086016200028d565b91505092915050565b600060ff82169050919050565b62000323816200030b565b81146200032f57600080fd5b50565b600081519050620003438162000318565b92915050565b6000819050919050565b6200035e8162000349565b81146200036a57600080fd5b50565b6000815190506200037e8162000353565b92915050565b60008060008060808587031215620003a157620003a062000182565b5b600085015167ffffffffffffffff811115620003c257620003c162000187565b5b620003d087828801620002d8565b945050602085015167ffffffffffffffff811115620003f457620003f362000187565b5b6200040287828801620002d8565b9350506040620004158782880162000332565b925050606062000428878288016200036d565b91505092959194509250565b600081519050919050565b7f4e487b7100000000000000000000000000000000000000000000000000000000600052602260045260246000fd5b600060028204905060018216806200048757607f821691505b6020821081036200049d576200049c6200043f565b5b50919050565b60008190508160005260206000209050919050565b60006020601f8301049050919050565b600082821b905092915050565b600060088302620005077fffffffffffffffffffffffffffffffffffffffffffffffffffffffffffffffff82620004c8565b620005138683620004c8565b95508019841693508086168417925050509392505050565b6000819050919050565b600062000556620005506200054a8462000349565b6200052b565b62000349565b9050919050565b6000819050919050565b620005728362000535565b6200058a62000581826200055d565b848454620004d5565b825550505050565b600090565b620005a162000592565b620005ae81848462000567565b505050565b5b81811015620005d657620005ca60008262000597565b600181019050620005b4565b5050565b601f8211156200062557620005ef81620004a3565b620005fa84620004b8565b810160208510156200060a578190505b620006226200061985620004b8565b830182620005b3565b50505b505050565b600082821c905092915050565b60006200064a600019846008026200062a565b1980831691505092915050565b600062000665838362000637565b9150826002028217905092915050565b620006808262000434565b67ffffffffffffffff8111156200069c576200069b620001a7565b5b620006a882546200046e565b620006b5828285620005da565b600060209050601f831160018114620006ed5760008415620006d8578287015190505b620006e4858262000657565b86555062000754565b601f198416620006fd86620004a3565b60005b82811015620007275784890151825560018201915060208501945060208101905062000700565b8683101562000747578489015162000743601f89168262000637565b8355505b6001600288020188555050505b505050505050565b620007678162000349565b82525050565b60006020820190506200078460008301846200075c565b92915050565b611311806200079a6000396000f3fe608060405234801561001057600080fd5b50600436106100ea5760003560e01c80638da5cb5b1161008c578063b09f126611610066578063b09f12661461023b578063c4e41b2214610259578063d28d885214610277578063f0141d8414610295576100ea565b80638da5cb5b146101d15780639dc29fac146101ef578063a9059cbb1461020b576100ea565b80633eaaf86b116100c85780633eaaf86b1461014957806340c10f191461016757806370a0823114610183578063893d20e8146101b3576100ea565b806315070401146100ef57806317d7de7c1461010d57806332424aa31461012b575b600080fd5b6100f76102b3565b6040516101049190610da8565b60405180910390f35b610115610345565b6040516101229190610da8565b60405180910390f35b6101336103d7565b6040516101409190610de6565b60405180910390f35b6101516103ea565b60405161015e9190610e1a565b60405180910390f35b610181600480360381019061017c9190610ec4565b6103f0565b005b61019d60048036038101906101989190610f04565b610618565b6040516101aa9190610e1a565b60405180910390f35b6101bb610661565b6040516101c89190610f40565b60405180910390f35b6101d961068b565b6040516101e69190610f40565b60405180910390f35b61020960048036038101906102049190610ec4565b6106b4565b005b61022560048036038101906102209190610ec4565b6108dc565b6040516102329190610f76565b60405180910390f35b6102436108f3565b6040516102509190610da8565b60405180910390f35b610261610981565b60405161026e9190610e1a565b60405180910390f35b61027f61098b565b60405161028c9190610da8565b60405180910390f35b61029d610a19565b6040516102aa9190610e1a565b60405180910390f35b6060600380546102c290610fc0565b80601f01602080910402602001604051908101604052809291908181526020018280546102ee90610fc0565b801561033b5780601f106103105761010080835404028352916020019161033b565b820191906000526020600020905b81548152906001019060200180831161031e57829003601f168201915b5050505050905090565b60606004805461035490610fc0565b80601f016020809104026020016040519081016040528092919081815260200182805461038090610fc0565b80156103cd5780601f106103a2576101008083540402835291602001916103cd565b820191906000526020600020905b8154815290600101906020018083116103b057829003601f168201915b5050505050905090565b600260009054906101000a900460ff1681565b60015481565b600073ffffffffffffffffffffffffffffffffffffffff168273ffffffffffffffffffffffffffffffffffffffff160361045f576040517f08c379a00000000000000000000000000000000000000000000000000000000081526004016104569061103d565b60405180910390fd5b600660009054906101000a900473ffffffffffffffffffffffffffffffffffffffff1673ffffffffffffffffffffffffffffffffffffffff163373ffffffffffffffffffffffffffffffffffffffff16146104ef576040517f08c379a00000000000000000000000000000000000000000000000000000000081526004016104e6906110a9565b60405180910390fd5b806001546104fd91906110f8565b60018190555080600560008473ffffffffffffffffffffffffffffffffffffffff1673ffffffffffffffffffffffffffffffffffffffff1681526020019081526020016000205461054e919061112c565b600560008473ffffffffffffffffffffffffffffffffffffffff1673ffffffffffffffffffffffffffffffffffffffff16815260200190815260200160002081905550600154600560003373ffffffffffffffffffffffffffffffffffffffff1673ffffffffffffffffffffffffffffffffffffffff168152602001908152602001600020819055507fead94eb56e46b064207039af2a77f19bbfdcdf7cb4481d53d8f8c75dfcb59fc4828260015460405161060c93929190611160565b60405180910390a15050565b6000600560008373ffffffffffffffffffffffffffffffffffffffff1673ffffffffffffffffffffffffffffffffffffffff168152602001908152602001600020549050919050565b6000600660009054906101000a900473ffffffffffffffffffffffffffffffffffffffff16905090565b60008060009054906101000a900473ffffffffffffffffffffffffffffffffffffffff16905090565b600073ffffffffffffffffffffffffffffffffffffffff168273ffffffffffffffffffffffffffffffffffffffff1603610723576040517f08c379a000000000000000000000000000000000000000000000000000000000815260040161071a9061103d565b60405180910390fd5b600660009054906101000a900473ffffffffffffffffffffffffffffffffffffffff1673ffffffffffffffffffffffffffffffffffffffff163373ffffffffffffffffffffffffffffffffffffffff16146107b3576040517f08c379a00000000000000000000000000000000000000000000000000000000081526004016107aa906110a9565b60405180910390fd5b806001546107c1919061112c565b60018190555080600560008473ffffffffffffffffffffffffffffffffffffffff1673ffffffffffffffffffffffffffffffffffffffff1681526020019081526020016000205461081291906110f8565b600560008473ffffffffffffffffffffffffffffffffffffffff1673ffffffffffffffffffffffffffffffffffffffff16815260200190815260200160002081905550600154600560003373ffffffffffffffffffffffffffffffffffffffff1673ffffffffffffffffffffffffffffffffffffffff168152602001908152602001600020819055507f6c39c1b64b94290d7bc6dbd51188e877a39e65fab93549b73262681f62eea9b482826001546040516108d093929190611160565b60405180910390a15050565b60006108e9338484610a33565b6001905092915050565b6003805461090090610fc0565b80601f016020809104026020016040519081016040528092919081815260200182805461092c90610fc0565b80156109795780601f1061094e57610100808354040283529160200191610979565b820191906000526020600020905b81548152906001019060200180831161095c57829003601f168201915b505050505081565b6000600154905090565b6004805461099890610fc0565b80601f01602080910402602001604051908101604052809291908181526020018280546109c490610fc0565b8015610a115780601f106109e657610100808354040283529160200191610a11565b820191906000526020600020905b8154815290600101906020018083116109f457829003601f168201915b505050505081565b6000600260009054906101000a900460ff1660ff16905090565b600073ffffffffffffffffffffffffffffffffffffffff168373ffffffffffffffffffffffffffffffffffffffff1603610aa2576040517f08c379a0000000000000000000000000000000000000000000000000000000008152600401610a99906111e3565b60405180910390fd5b600073ffffffffffffffffffffffffffffffffffffffff168273ffffffffffffffffffffffffffffffffffffffff1603610b11576040517f08c379a0000000000000000000000000000000000000000000000000000000008152600401610b089061124f565b60405180910390fd5b80600560008573ffffffffffffffffffffffffffffffffffffffff1673ffffffffffffffffffffffffffffffffffffffff1681526020019081526020016000205411610b92576040517f08c379a0000000000000000000000000000000000000000000000000000000008152600401610b89906112bb565b60405180910390fd5b80600560008573ffffffffffffffffffffffffffffffffffffffff1673ffffffffffffffffffffffffffffffffffffffff16815260200190815260200160002054610bdd91906110f8565b600560008573ffffffffffffffffffffffffffffffffffffffff1673ffffffffffffffffffffffffffffffffffffffff1681526020019081526020016000208190555080600560008473ffffffffffffffffffffffffffffffffffffffff1673ffffffffffffffffffffffffffffffffffffffff16815260200190815260200160002054610c6b919061112c565b600560008473ffffffffffffffffffffffffffffffffffffffff1673ffffffffffffffffffffffffffffffffffffffff168152602001908152602001600020819055508173ffffffffffffffffffffffffffffffffffffffff168373ffffffffffffffffffffffffffffffffffffffff167fddf252ad1be2c89b69c2b068fc378daa952ba7f163c4a11628f55a4df523b3ef83604051610d0b9190610e1a565b60405180910390a3505050565b600081519050919050565b600082825260208201905092915050565b60005b83811015610d52578082015181840152602081019050610d37565b60008484015250505050565b6000601f19601f8301169050919050565b6000610d7a82610d18565b610d848185610d23565b9350610d94818560208601610d34565b610d9d81610d5e565b840191505092915050565b60006020820190508181036000830152610dc28184610d6f565b905092915050565b600060ff82169050919050565b610de081610dca565b82525050565b6000602082019050610dfb6000830184610dd7565b92915050565b6000819050919050565b610e1481610e01565b82525050565b6000602082019050610e2f6000830184610e0b565b92915050565b600080fd5b600073ffffffffffffffffffffffffffffffffffffffff82169050919050565b6000610e6582610e3a565b9050919050565b610e7581610e5a565b8114610e8057600080fd5b50565b600081359050610e9281610e6c565b92915050565b610ea181610e01565b8114610eac57600080fd5b50565b600081359050610ebe81610e98565b92915050565b60008060408385031215610edb57610eda610e35565b5b6000610ee985828601610e83565b9250506020610efa85828601610eaf565b9150509250929050565b600060208284031215610f1a57610f19610e35565b5b6000610f2884828501610e83565b91505092915050565b610f3a81610e5a565b82525050565b6000602082019050610f556000830184610f31565b92915050565b60008115159050919050565b610f7081610f5b565b82525050565b6000602082019050610f8b6000830184610f67565b92915050565b7f4e487b7100000000000000000000000000000000000000000000000000000000600052602260045260246000fd5b60006002820490506001821680610fd857607f821691505b602082108103610feb57610fea610f91565b5b50919050565b7f616464726573732063616e742062652030000000000000000000000000000000600082015250565b6000611027601183610d23565b915061103282610ff1565b602082019050919050565b600060208201905081810360008301526110568161101a565b9050919050565b7f6f6e6c79206f776e65722063616e206d696e7400000000000000000000000000600082015250565b6000611093601383610d23565b915061109e8261105d565b602082019050919050565b600060208201905081810360008301526110c281611086565b9050919050565b7f4e487b7100000000000000000000000000000000000000000000000000000000600052601160045260246000fd5b600061110382610e01565b915061110e83610e01565b9250828203905081811115611126576111256110c9565b5b92915050565b600061113782610e01565b915061114283610e01565b925082820190508082111561115a576111596110c9565b5b92915050565b60006060820190506111756000830186610f31565b6111826020830185610e0b565b61118f6040830184610e0b565b949350505050565b7f73656e6465722063616e206e6f74206265203000000000000000000000000000600082015250565b60006111cd601383610d23565b91506111d882611197565b602082019050919050565b600060208201905081810360008301526111fc816111c0565b9050919050565b7f726563697069656e742063616e206e6f74206265203000000000000000000000600082015250565b6000611239601683610d23565b915061124482611203565b602082019050919050565b600060208201905081810360008301526112688161122c565b9050919050565b7f6e6f7420656e6f75676820616d6f756e7420746f207472616e73666572000000600082015250565b60006112a5601d83610d23565b91506112b08261126f565b602082019050919050565b600060208201905081810360008301526112d481611298565b905091905056fea264697066735822122071a40b8842de05dd2272b63a4e6955b5d6fa328fedeb8076853d5bc4a91c022d64736f6c63430008110033",
  "immutableReferences": {},
  "source": "// SPDX-License-Identifier: MIT\npragma solidity ^0.8.15;\n\nimport \"./Ownable.sol\";\nimport \"./Staking.sol\";\ncontract BEPToken is Ownable,staking{\n    \n\n\n  /**\n  * @notice Our Tokens required variables that are needed to operate everything\n  */\n  uint public _totalSupply;\n  uint8 public _decimals;\n  string public _symbol;\n  string public _name;\n\nfunction getName() external view returns(string memory){\n    return _name;\n}\nfunction getDecimals() external view returns(uint){\n    return _decimals;\n}\nfunction getSymbol() external view returns(string memory){\n    return _symbol;\n}\nfunction getTotalSupply() external view returns(uint){\n    return _totalSupply;\n}\n\nfunction getOwner() external view returns(address){\n    return _owner;\n}\n  /**\n  * @notice _balances is a mapping that contains a address as KEY \n  * and the balance of the address as the value\n  */\n  mapping (address => uint256) private _balances;\n\n  /**\n  * @notice Events are created below.\n  * Transfer event is a event that notify the blockchain that a transfer of assets has taken place\n  *\n  */\n  event Transfer(address indexed from, address indexed to, uint256 value);\n\n  /**\n  * @notice constructor will be triggered when we create the Smart contract\n  * _name = name of the token\n  * _short_symbol = Short Symbol name for the token\n  * token_decimals = The decimal precision of the Token, defaults 18\n  * _totalSupply is how much Tokens there are totally \n  */\n  address _owner;\n  constructor(string memory token_name, string memory short_symbol, uint8 token_decimals, uint256 token_totalSupply){\n      _name = token_name;\n      _symbol = short_symbol;\n      _decimals = token_decimals;\n      _totalSupply = token_totalSupply;\n      _owner=msg.sender;\n\n      // Add all the tokens created to the creator of the token\n      _balances[msg.sender] = _totalSupply;\n\n      // Emit an Transfer event to notify the blockchain that an Transfer has occured\n      emit Transfer(address(0), msg.sender, _totalSupply);\n  }\n\n  function balanceOf(address account) external view returns(uint){\n    return _balances[account];\n  }\n    event minted(address, uint, uint);\n    event burned(address, uint, uint);\n\n    function mint(address account, uint amount) external{\n        require(account!=address(0), \"address cant be 0\");\n        require(msg.sender==_owner, \"only owner can mint\");\n\n        _totalSupply=_totalSupply-amount;\n        _balances[account]=_balances[account]+amount;\n        _balances[msg.sender]=_totalSupply;\n        emit minted(account,amount,_totalSupply);\n    }\n\n    function burn(address account, uint amount) external{\n        require(account!=address(0), \"address cant be 0\");\n        require(msg.sender==_owner, \"only owner can mint\");\n\n        _totalSupply=_totalSupply+amount;\n        _balances[account]=_balances[account]-amount;\n         _balances[msg.sender]=_totalSupply;\n        emit burned(account,amount,_totalSupply);\n    }\n\n    function transfer(address recipient, uint amount) external returns(bool) {\n        _transfer(msg.sender,recipient,amount);\n        return true;\n    }\n\n    function _transfer(address sender, address recipient, uint amount) internal{\n        require(sender != address(0),\"sender can not be 0\");\n        require(recipient != address(0),\"recipient can not be 0\");\n        require(_balances[sender]> amount, \"not enough amount to transfer\");\n\n        _balances[sender]=_balances[sender]-amount;\n        _balances[recipient]=_balances[recipient]+amount;\n        emit Transfer(sender,recipient,amount);\n    }\n\n\n\n}\n",
  "sourcePath": "/home/ashutosh/Downloads/ethereum/BEP-TOKEN/contracts/BEPToken.sol",
  "compiler": {
    "name": "solc",
    "version": "0.8.17+commit.8df45f5f.Emscripten.clang"
  },
  "schemaVersion": "3.4.11",
  "updatedAt": "2023-01-12T17:00:00.041Z",
  "devdoc": {
    "kind": "dev",
    "methods": {},
    "version": 1
  },
  "userdoc": {
    "events": {
      "Transfer(address,address,uint256)": {
        "notice": "Events are created below. Transfer event is a event that notify the blockchain that a transfer of assets has taken place"
      }
    },
    "kind": "user",
    "methods": {
      "_totalSupply()": {
        "notice": "Our Tokens required variables that are needed to operate everything"
      }
    },
    "version": 1
  }
}