{
  "contractName": "Quillacious",
  "abi": [
    {
      "inputs": [],
      "stateMutability": "nonpayable",
      "type": "constructor"
    },
    {
      "anonymous": false,
      "inputs": [
        {
          "indexed": true,
          "internalType": "address",
          "name": "owner",
          "type": "address"
        },
        {
          "indexed": true,
          "internalType": "address",
          "name": "approved",
          "type": "address"
        },
        {
          "indexed": true,
          "internalType": "uint256",
          "name": "tokenId",
          "type": "uint256"
        }
      ],
      "name": "Approval",
      "type": "event"
    },
    {
      "anonymous": false,
      "inputs": [
        {
          "indexed": true,
          "internalType": "address",
          "name": "owner",
          "type": "address"
        },
        {
          "indexed": true,
          "internalType": "address",
          "name": "operator",
          "type": "address"
        },
        {
          "indexed": false,
          "internalType": "bool",
          "name": "approved",
          "type": "bool"
        }
      ],
      "name": "ApprovalForAll",
      "type": "event"
    },
    {
      "anonymous": false,
      "inputs": [
        {
          "indexed": true,
          "internalType": "address",
          "name": "previousOwner",
          "type": "address"
        },
        {
          "indexed": true,
          "internalType": "address",
          "name": "newOwner",
          "type": "address"
        }
      ],
      "name": "OwnershipTransferred",
      "type": "event"
    },
    {
      "anonymous": false,
      "inputs": [
        {
          "indexed": true,
          "internalType": "address",
          "name": "from",
          "type": "address"
        },
        {
          "indexed": true,
          "internalType": "address",
          "name": "to",
          "type": "address"
        },
        {
          "indexed": true,
          "internalType": "uint256",
          "name": "tokenId",
          "type": "uint256"
        }
      ],
      "name": "Transfer",
      "type": "event"
    },
    {
      "inputs": [
        {
          "internalType": "address",
          "name": "to",
          "type": "address"
        },
        {
          "internalType": "uint256",
          "name": "tokenId",
          "type": "uint256"
        }
      ],
      "name": "approve",
      "outputs": [],
      "stateMutability": "nonpayable",
      "type": "function"
    },
    {
      "inputs": [
        {
          "internalType": "address",
          "name": "owner",
          "type": "address"
        }
      ],
      "name": "balanceOf",
      "outputs": [
        {
          "internalType": "uint256",
          "name": "",
          "type": "uint256"
        }
      ],
      "stateMutability": "view",
      "type": "function",
      "constant": true
    },
    {
      "inputs": [
        {
          "internalType": "uint256",
          "name": "tokenId",
          "type": "uint256"
        }
      ],
      "name": "getApproved",
      "outputs": [
        {
          "internalType": "address",
          "name": "",
          "type": "address"
        }
      ],
      "stateMutability": "view",
      "type": "function",
      "constant": true
    },
    {
      "inputs": [
        {
          "internalType": "address",
          "name": "owner",
          "type": "address"
        },
        {
          "internalType": "address",
          "name": "operator",
          "type": "address"
        }
      ],
      "name": "isApprovedForAll",
      "outputs": [
        {
          "internalType": "bool",
          "name": "",
          "type": "bool"
        }
      ],
      "stateMutability": "view",
      "type": "function",
      "constant": true
    },
    {
      "inputs": [],
      "name": "name",
      "outputs": [
        {
          "internalType": "string",
          "name": "",
          "type": "string"
        }
      ],
      "stateMutability": "view",
      "type": "function",
      "constant": true
    },
    {
      "inputs": [],
      "name": "owner",
      "outputs": [
        {
          "internalType": "address",
          "name": "",
          "type": "address"
        }
      ],
      "stateMutability": "view",
      "type": "function",
      "constant": true
    },
    {
      "inputs": [
        {
          "internalType": "uint256",
          "name": "tokenId",
          "type": "uint256"
        }
      ],
      "name": "ownerOf",
      "outputs": [
        {
          "internalType": "address",
          "name": "",
          "type": "address"
        }
      ],
      "stateMutability": "view",
      "type": "function",
      "constant": true
    },
    {
      "inputs": [],
      "name": "renounceOwnership",
      "outputs": [],
      "stateMutability": "nonpayable",
      "type": "function"
    },
    {
      "inputs": [
        {
          "internalType": "address",
          "name": "from",
          "type": "address"
        },
        {
          "internalType": "address",
          "name": "to",
          "type": "address"
        },
        {
          "internalType": "uint256",
          "name": "tokenId",
          "type": "uint256"
        }
      ],
      "name": "safeTransferFrom",
      "outputs": [],
      "stateMutability": "nonpayable",
      "type": "function"
    },
    {
      "inputs": [
        {
          "internalType": "address",
          "name": "from",
          "type": "address"
        },
        {
          "internalType": "address",
          "name": "to",
          "type": "address"
        },
        {
          "internalType": "uint256",
          "name": "tokenId",
          "type": "uint256"
        },
        {
          "internalType": "bytes",
          "name": "data",
          "type": "bytes"
        }
      ],
      "name": "safeTransferFrom",
      "outputs": [],
      "stateMutability": "nonpayable",
      "type": "function"
    },
    {
      "inputs": [
        {
          "internalType": "address",
          "name": "operator",
          "type": "address"
        },
        {
          "internalType": "bool",
          "name": "approved",
          "type": "bool"
        }
      ],
      "name": "setApprovalForAll",
      "outputs": [],
      "stateMutability": "nonpayable",
      "type": "function"
    },
    {
      "inputs": [
        {
          "internalType": "bytes4",
          "name": "interfaceId",
          "type": "bytes4"
        }
      ],
      "name": "supportsInterface",
      "outputs": [
        {
          "internalType": "bool",
          "name": "",
          "type": "bool"
        }
      ],
      "stateMutability": "view",
      "type": "function",
      "constant": true
    },
    {
      "inputs": [],
      "name": "symbol",
      "outputs": [
        {
          "internalType": "string",
          "name": "",
          "type": "string"
        }
      ],
      "stateMutability": "view",
      "type": "function",
      "constant": true
    },
    {
      "inputs": [
        {
          "internalType": "address",
          "name": "from",
          "type": "address"
        },
        {
          "internalType": "address",
          "name": "to",
          "type": "address"
        },
        {
          "internalType": "uint256",
          "name": "tokenId",
          "type": "uint256"
        }
      ],
      "name": "transferFrom",
      "outputs": [],
      "stateMutability": "nonpayable",
      "type": "function"
    },
    {
      "inputs": [
        {
          "internalType": "address",
          "name": "newOwner",
          "type": "address"
        }
      ],
      "name": "transferOwnership",
      "outputs": [],
      "stateMutability": "nonpayable",
      "type": "function"
    },
    {
      "inputs": [
        {
          "internalType": "address",
          "name": "to",
          "type": "address"
        },
        {
          "internalType": "string",
          "name": "uri",
          "type": "string"
        }
      ],
      "name": "safeMint",
      "outputs": [],
      "stateMutability": "nonpayable",
      "type": "function"
    },
    {
      "inputs": [
        {
          "internalType": "uint256",
          "name": "tokenId",
          "type": "uint256"
        }
      ],
      "name": "tokenURI",
      "outputs": [
        {
          "internalType": "string",
          "name": "",
          "type": "string"
        }
      ],
      "stateMutability": "pure",
      "type": "function",
      "constant": true
    },
    {
      "inputs": [],
      "name": "buyToken",
      "outputs": [],
      "stateMutability": "payable",
      "type": "function",
      "payable": true
    }
  ],
  "bytecode": "0x60806040523480156200001157600080fd5b506040518060400160405280600b81526020017f5175696c6c6163696f75730000000000000000000000000000000000000000008152506040518060400160405280600381526020017f51574c000000000000000000000000000000000000000000000000000000000081525081600090816200008f919062000412565b508060019081620000a1919062000412565b505050620000c4620000b8620000ca60201b60201c565b620000d260201b60201c565b620004f9565b600033905090565b6000600760009054906101000a900473ffffffffffffffffffffffffffffffffffffffff16905081600760006101000a81548173ffffffffffffffffffffffffffffffffffffffff021916908373ffffffffffffffffffffffffffffffffffffffff1602179055508173ffffffffffffffffffffffffffffffffffffffff168173ffffffffffffffffffffffffffffffffffffffff167f8be0079c531659141344cd1fd0a4f28419497f9722a3daafe3b4186f6b6457e060405160405180910390a35050565b600081519050919050565b7f4e487b7100000000000000000000000000000000000000000000000000000000600052604160045260246000fd5b7f4e487b7100000000000000000000000000000000000000000000000000000000600052602260045260246000fd5b600060028204905060018216806200021a57607f821691505b60208210810362000230576200022f620001d2565b5b50919050565b60008190508160005260206000209050919050565b60006020601f8301049050919050565b600082821b905092915050565b6000600883026200029a7fffffffffffffffffffffffffffffffffffffffffffffffffffffffffffffffff826200025b565b620002a686836200025b565b95508019841693508086168417925050509392505050565b6000819050919050565b6000819050919050565b6000620002f3620002ed620002e784620002be565b620002c8565b620002be565b9050919050565b6000819050919050565b6200030f83620002d2565b620003276200031e82620002fa565b84845462000268565b825550505050565b600090565b6200033e6200032f565b6200034b81848462000304565b505050565b5b8181101562000373576200036760008262000334565b60018101905062000351565b5050565b601f821115620003c2576200038c8162000236565b62000397846200024b565b81016020851015620003a7578190505b620003bf620003b6856200024b565b83018262000350565b50505b505050565b600082821c905092915050565b6000620003e760001984600802620003c7565b1980831691505092915050565b6000620004028383620003d4565b9150826002028217905092915050565b6200041d8262000198565b67ffffffffffffffff811115620004395762000438620001a3565b5b62000445825462000201565b6200045282828562000377565b600060209050601f8311600181146200048a576000841562000475578287015190505b620004818582620003f4565b865550620004f1565b601f1984166200049a8662000236565b60005b82811015620004c4578489015182556001820191506020850194506020810190506200049d565b86831015620004e45784890151620004e0601f891682620003d4565b8355505b6001600288020188555050505b505050505050565b61309680620005096000396000f3fe6080604052600436106101095760003560e01c80638da5cb5b11610095578063b88d4fde11610064578063b88d4fde14610348578063c87b56dd14610371578063d204c45e146103ae578063e985e9c5146103d7578063f2fde38b1461041457610109565b80638da5cb5b146102bf57806395d89b41146102ea578063a22cb46514610315578063a48217191461033e57610109565b806323b872dd116100dc57806323b872dd146101dc57806342842e0e146102055780636352211e1461022e57806370a082311461026b578063715018a6146102a857610109565b806301ffc9a71461010e57806306fdde031461014b578063081812fc14610176578063095ea7b3146101b3575b600080fd5b34801561011a57600080fd5b5061013560048036038101906101309190611c35565b61043d565b6040516101429190611c7d565b60405180910390f35b34801561015757600080fd5b5061016061051f565b60405161016d9190611d28565b60405180910390f35b34801561018257600080fd5b5061019d60048036038101906101989190611d80565b6105b1565b6040516101aa9190611dee565b60405180910390f35b3480156101bf57600080fd5b506101da60048036038101906101d59190611e35565b6105f7565b005b3480156101e857600080fd5b5061020360048036038101906101fe9190611e75565b61070e565b005b34801561021157600080fd5b5061022c60048036038101906102279190611e75565b61076e565b005b34801561023a57600080fd5b5061025560048036038101906102509190611d80565b61078e565b6040516102629190611dee565b60405180910390f35b34801561027757600080fd5b50610292600480360381019061028d9190611ec8565b610814565b60405161029f9190611f04565b60405180910390f35b3480156102b457600080fd5b506102bd6108cb565b005b3480156102cb57600080fd5b506102d46108df565b6040516102e19190611dee565b60405180910390f35b3480156102f657600080fd5b506102ff610909565b60405161030c9190611d28565b60405180910390f35b34801561032157600080fd5b5061033c60048036038101906103379190611f4b565b61099b565b005b6103466109b1565b005b34801561035457600080fd5b5061036f600480360381019061036a91906120c0565b610a6a565b005b34801561037d57600080fd5b5061039860048036038101906103939190611d80565b610acc565b6040516103a59190611d28565b60405180910390f35b3480156103ba57600080fd5b506103d560048036038101906103d091906121e4565b610b0a565b005b3480156103e357600080fd5b506103fe60048036038101906103f99190612240565b610b43565b60405161040b9190611c7d565b60405180910390f35b34801561042057600080fd5b5061043b60048036038101906104369190611ec8565b610bd7565b005b60007f80ac58cd000000000000000000000000000000000000000000000000000000007bffffffffffffffffffffffffffffffffffffffffffffffffffffffff1916827bffffffffffffffffffffffffffffffffffffffffffffffffffffffff1916148061050857507f5b5e139f000000000000000000000000000000000000000000000000000000007bffffffffffffffffffffffffffffffffffffffffffffffffffffffff1916827bffffffffffffffffffffffffffffffffffffffffffffffffffffffff1916145b80610518575061051782610c5a565b5b9050919050565b60606000805461052e906122af565b80601f016020809104026020016040519081016040528092919081815260200182805461055a906122af565b80156105a75780601f1061057c576101008083540402835291602001916105a7565b820191906000526020600020905b81548152906001019060200180831161058a57829003601f168201915b5050505050905090565b60006105bc82610cc4565b6004600083815260200190815260200160002060009054906101000a900473ffffffffffffffffffffffffffffffffffffffff169050919050565b60006106028261078e565b90508073ffffffffffffffffffffffffffffffffffffffff168373ffffffffffffffffffffffffffffffffffffffff1603610672576040517f08c379a000000000000000000000000000000000000000000000000000000000815260040161066990612352565b60405180910390fd5b8073ffffffffffffffffffffffffffffffffffffffff16610691610d0f565b73ffffffffffffffffffffffffffffffffffffffff1614806106c057506106bf816106ba610d0f565b610b43565b5b6106ff576040517f08c379a00000000000000000000000000000000000000000000000000000000081526004016106f6906123e4565b60405180910390fd5b6107098383610d17565b505050565b61071f610719610d0f565b82610dd0565b61075e576040517f08c379a000000000000000000000000000000000000000000000000000000000815260040161075590612476565b60405180910390fd5b610769838383610e65565b505050565b61078983838360405180602001604052806000815250610a6a565b505050565b60008061079a8361115e565b9050600073ffffffffffffffffffffffffffffffffffffffff168173ffffffffffffffffffffffffffffffffffffffff160361080b576040517f08c379a0000000000000000000000000000000000000000000000000000000008152600401610802906124e2565b60405180910390fd5b80915050919050565b60008073ffffffffffffffffffffffffffffffffffffffff168273ffffffffffffffffffffffffffffffffffffffff1603610884576040517f08c379a000000000000000000000000000000000000000000000000000000000815260040161087b90612574565b60405180910390fd5b600360008373ffffffffffffffffffffffffffffffffffffffff1673ffffffffffffffffffffffffffffffffffffffff168152602001908152602001600020549050919050565b6108d361119b565b6108dd6000611219565b565b6000600760009054906101000a900473ffffffffffffffffffffffffffffffffffffffff16905090565b606060018054610918906122af565b80601f0160208091040260200160405190810160405280929190818152602001828054610944906122af565b80156109915780601f1061096657610100808354040283529160200191610991565b820191906000526020600020905b81548152906001019060200180831161097457829003601f168201915b5050505050905090565b6109ad6109a6610d0f565b83836112df565b5050565b60006109bd600861144b565b90506109ff6040518060400160405280600881526020017f676f7420686572650000000000000000000000000000000000000000000000008152508234611459565b66038d7ea4c6800081610a1291906125c3565b3414610a53576040517f08c379a0000000000000000000000000000000000000000000000000000000008152600401610a4a90612651565b60405180910390fd5b610a5d60086114f8565b610a67338261150e565b50565b610a7b610a75610d0f565b83610dd0565b610aba576040517f08c379a0000000000000000000000000000000000000000000000000000000008152600401610ab190612476565b60405180910390fd5b610ac68484848461152c565b50505050565b6060610ad6611588565b600183610ae39190612671565b604051602001610af492919061279a565b6040516020818303038152906040529050919050565b610b1261119b565b6000610b1e600861144b565b9050610b2a60086114f8565b610b34838261150e565b610b3e81836115a8565b505050565b6000600560008473ffffffffffffffffffffffffffffffffffffffff1673ffffffffffffffffffffffffffffffffffffffff16815260200190815260200160002060008373ffffffffffffffffffffffffffffffffffffffff1673ffffffffffffffffffffffffffffffffffffffff16815260200190815260200160002060009054906101000a900460ff16905092915050565b610bdf61119b565b600073ffffffffffffffffffffffffffffffffffffffff168173ffffffffffffffffffffffffffffffffffffffff1603610c4e576040517f08c379a0000000000000000000000000000000000000000000000000000000008152600401610c459061284a565b60405180910390fd5b610c5781611219565b50565b60007f01ffc9a7000000000000000000000000000000000000000000000000000000007bffffffffffffffffffffffffffffffffffffffffffffffffffffffff1916827bffffffffffffffffffffffffffffffffffffffffffffffffffffffff1916149050919050565b610ccd81611615565b610d0c576040517f08c379a0000000000000000000000000000000000000000000000000000000008152600401610d03906124e2565b60405180910390fd5b50565b600033905090565b816004600083815260200190815260200160002060006101000a81548173ffffffffffffffffffffffffffffffffffffffff021916908373ffffffffffffffffffffffffffffffffffffffff160217905550808273ffffffffffffffffffffffffffffffffffffffff16610d8a8361078e565b73ffffffffffffffffffffffffffffffffffffffff167f8c5be1e5ebec7d5bd14f71427d1e84f3dd0314c0f7b2291e5b200ac8c7c3b92560405160405180910390a45050565b600080610ddc8361078e565b90508073ffffffffffffffffffffffffffffffffffffffff168473ffffffffffffffffffffffffffffffffffffffff161480610e1e5750610e1d8185610b43565b5b80610e5c57508373ffffffffffffffffffffffffffffffffffffffff16610e44846105b1565b73ffffffffffffffffffffffffffffffffffffffff16145b91505092915050565b8273ffffffffffffffffffffffffffffffffffffffff16610e858261078e565b73ffffffffffffffffffffffffffffffffffffffff1614610edb576040517f08c379a0000000000000000000000000000000000000000000000000000000008152600401610ed2906128dc565b60405180910390fd5b600073ffffffffffffffffffffffffffffffffffffffff168273ffffffffffffffffffffffffffffffffffffffff1603610f4a576040517f08c379a0000000000000000000000000000000000000000000000000000000008152600401610f419061296e565b60405180910390fd5b610f578383836001611656565b8273ffffffffffffffffffffffffffffffffffffffff16610f778261078e565b73ffffffffffffffffffffffffffffffffffffffff1614610fcd576040517f08c379a0000000000000000000000000000000000000000000000000000000008152600401610fc4906128dc565b60405180910390fd5b6004600082815260200190815260200160002060006101000a81549073ffffffffffffffffffffffffffffffffffffffff02191690556001600360008573ffffffffffffffffffffffffffffffffffffffff1673ffffffffffffffffffffffffffffffffffffffff168152602001908152602001600020600082825403925050819055506001600360008473ffffffffffffffffffffffffffffffffffffffff1673ffffffffffffffffffffffffffffffffffffffff16815260200190815260200160002060008282540192505081905550816002600083815260200190815260200160002060006101000a81548173ffffffffffffffffffffffffffffffffffffffff021916908373ffffffffffffffffffffffffffffffffffffffff160217905550808273ffffffffffffffffffffffffffffffffffffffff168473ffffffffffffffffffffffffffffffffffffffff167fddf252ad1be2c89b69c2b068fc378daa952ba7f163c4a11628f55a4df523b3ef60405160405180910390a4611159838383600161177c565b505050565b60006002600083815260200190815260200160002060009054906101000a900473ffffffffffffffffffffffffffffffffffffffff169050919050565b6111a3610d0f565b73ffffffffffffffffffffffffffffffffffffffff166111c16108df565b73ffffffffffffffffffffffffffffffffffffffff1614611217576040517f08c379a000000000000000000000000000000000000000000000000000000000815260040161120e906129da565b60405180910390fd5b565b6000600760009054906101000a900473ffffffffffffffffffffffffffffffffffffffff16905081600760006101000a81548173ffffffffffffffffffffffffffffffffffffffff021916908373ffffffffffffffffffffffffffffffffffffffff1602179055508173ffffffffffffffffffffffffffffffffffffffff168173ffffffffffffffffffffffffffffffffffffffff167f8be0079c531659141344cd1fd0a4f28419497f9722a3daafe3b4186f6b6457e060405160405180910390a35050565b8173ffffffffffffffffffffffffffffffffffffffff168373ffffffffffffffffffffffffffffffffffffffff160361134d576040517f08c379a000000000000000000000000000000000000000000000000000000000815260040161134490612a46565b60405180910390fd5b80600560008573ffffffffffffffffffffffffffffffffffffffff1673ffffffffffffffffffffffffffffffffffffffff16815260200190815260200160002060008473ffffffffffffffffffffffffffffffffffffffff1673ffffffffffffffffffffffffffffffffffffffff16815260200190815260200160002060006101000a81548160ff0219169083151502179055508173ffffffffffffffffffffffffffffffffffffffff168373ffffffffffffffffffffffffffffffffffffffff167f17307eab39ab6107e8899845ad3d59bd9653f200f220920489ca2b5937696c318360405161143e9190611c7d565b60405180910390a3505050565b600081600001549050919050565b6114f383838360405160240161147193929190612a66565b6040516020818303038152906040527fca47c4eb000000000000000000000000000000000000000000000000000000007bffffffffffffffffffffffffffffffffffffffffffffffffffffffff19166020820180517bffffffffffffffffffffffffffffffffffffffffffffffffffffffff8381831617835250505050611782565b505050565b6001816000016000828254019250508190555050565b6115288282604051806020016040528060008152506117a7565b5050565b611537848484610e65565b61154384848484611802565b611582576040517f08c379a000000000000000000000000000000000000000000000000000000000815260040161157990612b16565b60405180910390fd5b50505050565b60606040518060600160405280602b8152602001613036602b9139905090565b6115b182611615565b6115f0576040517f08c379a00000000000000000000000000000000000000000000000000000000081526004016115e790612ba8565b60405180910390fd5b806006600084815260200190815260200160002090816116109190612d74565b505050565b60008073ffffffffffffffffffffffffffffffffffffffff166116378361115e565b73ffffffffffffffffffffffffffffffffffffffff1614159050919050565b600181111561177657600073ffffffffffffffffffffffffffffffffffffffff168473ffffffffffffffffffffffffffffffffffffffff16146116ea5780600360008673ffffffffffffffffffffffffffffffffffffffff1673ffffffffffffffffffffffffffffffffffffffff16815260200190815260200160002060008282546116e29190612e46565b925050819055505b600073ffffffffffffffffffffffffffffffffffffffff168373ffffffffffffffffffffffffffffffffffffffff16146117755780600360008573ffffffffffffffffffffffffffffffffffffffff1673ffffffffffffffffffffffffffffffffffffffff168152602001908152602001600020600082825461176d9190612671565b925050819055505b5b50505050565b50505050565b60006a636f6e736f6c652e6c6f6790508151602083016000808383865afa5050505050565b6117b18383611989565b6117be6000848484611802565b6117fd576040517f08c379a00000000000000000000000000000000000000000000000000000000081526004016117f490612b16565b60405180910390fd5b505050565b60006118238473ffffffffffffffffffffffffffffffffffffffff16611ba6565b1561197c578373ffffffffffffffffffffffffffffffffffffffff1663150b7a0261184c610d0f565b8786866040518563ffffffff1660e01b815260040161186e9493929190612ecf565b6020604051808303816000875af19250505080156118aa57506040513d601f19601f820116820180604052508101906118a79190612f30565b60015b61192c573d80600081146118da576040519150601f19603f3d011682016040523d82523d6000602084013e6118df565b606091505b506000815103611924576040517f08c379a000000000000000000000000000000000000000000000000000000000815260040161191b90612b16565b60405180910390fd5b805181602001fd5b63150b7a0260e01b7bffffffffffffffffffffffffffffffffffffffffffffffffffffffff1916817bffffffffffffffffffffffffffffffffffffffffffffffffffffffff191614915050611981565b600190505b949350505050565b600073ffffffffffffffffffffffffffffffffffffffff168273ffffffffffffffffffffffffffffffffffffffff16036119f8576040517f08c379a00000000000000000000000000000000000000000000000000000000081526004016119ef90612fa9565b60405180910390fd5b611a0181611615565b15611a41576040517f08c379a0000000000000000000000000000000000000000000000000000000008152600401611a3890613015565b60405180910390fd5b611a4f600083836001611656565b611a5881611615565b15611a98576040517f08c379a0000000000000000000000000000000000000000000000000000000008152600401611a8f90613015565b60405180910390fd5b6001600360008473ffffffffffffffffffffffffffffffffffffffff1673ffffffffffffffffffffffffffffffffffffffff16815260200190815260200160002060008282540192505081905550816002600083815260200190815260200160002060006101000a81548173ffffffffffffffffffffffffffffffffffffffff021916908373ffffffffffffffffffffffffffffffffffffffff160217905550808273ffffffffffffffffffffffffffffffffffffffff16600073ffffffffffffffffffffffffffffffffffffffff167fddf252ad1be2c89b69c2b068fc378daa952ba7f163c4a11628f55a4df523b3ef60405160405180910390a4611ba260008383600161177c565b5050565b6000808273ffffffffffffffffffffffffffffffffffffffff163b119050919050565b6000604051905090565b600080fd5b600080fd5b60007fffffffff0000000000000000000000000000000000000000000000000000000082169050919050565b611c1281611bdd565b8114611c1d57600080fd5b50565b600081359050611c2f81611c09565b92915050565b600060208284031215611c4b57611c4a611bd3565b5b6000611c5984828501611c20565b91505092915050565b60008115159050919050565b611c7781611c62565b82525050565b6000602082019050611c926000830184611c6e565b92915050565b600081519050919050565b600082825260208201905092915050565b60005b83811015611cd2578082015181840152602081019050611cb7565b60008484015250505050565b6000601f19601f8301169050919050565b6000611cfa82611c98565b611d048185611ca3565b9350611d14818560208601611cb4565b611d1d81611cde565b840191505092915050565b60006020820190508181036000830152611d428184611cef565b905092915050565b6000819050919050565b611d5d81611d4a565b8114611d6857600080fd5b50565b600081359050611d7a81611d54565b92915050565b600060208284031215611d9657611d95611bd3565b5b6000611da484828501611d6b565b91505092915050565b600073ffffffffffffffffffffffffffffffffffffffff82169050919050565b6000611dd882611dad565b9050919050565b611de881611dcd565b82525050565b6000602082019050611e036000830184611ddf565b92915050565b611e1281611dcd565b8114611e1d57600080fd5b50565b600081359050611e2f81611e09565b92915050565b60008060408385031215611e4c57611e4b611bd3565b5b6000611e5a85828601611e20565b9250506020611e6b85828601611d6b565b9150509250929050565b600080600060608486031215611e8e57611e8d611bd3565b5b6000611e9c86828701611e20565b9350506020611ead86828701611e20565b9250506040611ebe86828701611d6b565b9150509250925092565b600060208284031215611ede57611edd611bd3565b5b6000611eec84828501611e20565b91505092915050565b611efe81611d4a565b82525050565b6000602082019050611f196000830184611ef5565b92915050565b611f2881611c62565b8114611f3357600080fd5b50565b600081359050611f4581611f1f565b92915050565b60008060408385031215611f6257611f61611bd3565b5b6000611f7085828601611e20565b9250506020611f8185828601611f36565b9150509250929050565b600080fd5b600080fd5b7f4e487b7100000000000000000000000000000000000000000000000000000000600052604160045260246000fd5b611fcd82611cde565b810181811067ffffffffffffffff82111715611fec57611feb611f95565b5b80604052505050565b6000611fff611bc9565b905061200b8282611fc4565b919050565b600067ffffffffffffffff82111561202b5761202a611f95565b5b61203482611cde565b9050602081019050919050565b82818337600083830152505050565b600061206361205e84612010565b611ff5565b90508281526020810184848401111561207f5761207e611f90565b5b61208a848285612041565b509392505050565b600082601f8301126120a7576120a6611f8b565b5b81356120b7848260208601612050565b91505092915050565b600080600080608085870312156120da576120d9611bd3565b5b60006120e887828801611e20565b94505060206120f987828801611e20565b935050604061210a87828801611d6b565b925050606085013567ffffffffffffffff81111561212b5761212a611bd8565b5b61213787828801612092565b91505092959194509250565b600067ffffffffffffffff82111561215e5761215d611f95565b5b61216782611cde565b9050602081019050919050565b600061218761218284612143565b611ff5565b9050828152602081018484840111156121a3576121a2611f90565b5b6121ae848285612041565b509392505050565b600082601f8301126121cb576121ca611f8b565b5b81356121db848260208601612174565b91505092915050565b600080604083850312156121fb576121fa611bd3565b5b600061220985828601611e20565b925050602083013567ffffffffffffffff81111561222a57612229611bd8565b5b612236858286016121b6565b9150509250929050565b6000806040838503121561225757612256611bd3565b5b600061226585828601611e20565b925050602061227685828601611e20565b9150509250929050565b7f4e487b7100000000000000000000000000000000000000000000000000000000600052602260045260246000fd5b600060028204905060018216806122c757607f821691505b6020821081036122da576122d9612280565b5b50919050565b7f4552433732313a20617070726f76616c20746f2063757272656e74206f776e6560008201527f7200000000000000000000000000000000000000000000000000000000000000602082015250565b600061233c602183611ca3565b9150612347826122e0565b604082019050919050565b6000602082019050818103600083015261236b8161232f565b9050919050565b7f4552433732313a20617070726f76652063616c6c6572206973206e6f7420746f60008201527f6b656e206f776e6572206f7220617070726f76656420666f7220616c6c000000602082015250565b60006123ce603d83611ca3565b91506123d982612372565b604082019050919050565b600060208201905081810360008301526123fd816123c1565b9050919050565b7f4552433732313a2063616c6c6572206973206e6f7420746f6b656e206f776e6560008201527f72206f7220617070726f76656400000000000000000000000000000000000000602082015250565b6000612460602d83611ca3565b915061246b82612404565b604082019050919050565b6000602082019050818103600083015261248f81612453565b9050919050565b7f4552433732313a20696e76616c696420746f6b656e2049440000000000000000600082015250565b60006124cc601883611ca3565b91506124d782612496565b602082019050919050565b600060208201905081810360008301526124fb816124bf565b9050919050565b7f4552433732313a2061646472657373207a65726f206973206e6f74206120766160008201527f6c6964206f776e65720000000000000000000000000000000000000000000000602082015250565b600061255e602983611ca3565b915061256982612502565b604082019050919050565b6000602082019050818103600083015261258d81612551565b9050919050565b7f4e487b7100000000000000000000000000000000000000000000000000000000600052601160045260246000fd5b60006125ce82611d4a565b91506125d983611d4a565b92508282026125e781611d4a565b915082820484148315176125fe576125fd612594565b5b5092915050565b7f77726f6e6720616d6f756e74206f662066756e64730000000000000000000000600082015250565b600061263b601583611ca3565b915061264682612605565b602082019050919050565b6000602082019050818103600083015261266a8161262e565b9050919050565b600061267c82611d4a565b915061268783611d4a565b925082820190508082111561269f5761269e612594565b5b92915050565b600081905092915050565b60006126bb82611c98565b6126c581856126a5565b93506126d5818560208601611cb4565b80840191505092915050565b7f7175696c6c5f0000000000000000000000000000000000000000000000000000600082015250565b60006127176006836126a5565b9150612722826126e1565b600682019050919050565b6000819050919050565b61274861274382611d4a565b61272d565b82525050565b7f2e6a736f6e000000000000000000000000000000000000000000000000000000600082015250565b60006127846005836126a5565b915061278f8261274e565b600582019050919050565b60006127a682856126b0565b91506127b18261270a565b91506127bd8284612737565b6020820191506127cc82612777565b91508190509392505050565b7f4f776e61626c653a206e6577206f776e657220697320746865207a65726f206160008201527f6464726573730000000000000000000000000000000000000000000000000000602082015250565b6000612834602683611ca3565b915061283f826127d8565b604082019050919050565b6000602082019050818103600083015261286381612827565b9050919050565b7f4552433732313a207472616e736665722066726f6d20696e636f72726563742060008201527f6f776e6572000000000000000000000000000000000000000000000000000000602082015250565b60006128c6602583611ca3565b91506128d18261286a565b604082019050919050565b600060208201905081810360008301526128f5816128b9565b9050919050565b7f4552433732313a207472616e7366657220746f20746865207a65726f2061646460008201527f7265737300000000000000000000000000000000000000000000000000000000602082015250565b6000612958602483611ca3565b9150612963826128fc565b604082019050919050565b600060208201905081810360008301526129878161294b565b9050919050565b7f4f776e61626c653a2063616c6c6572206973206e6f7420746865206f776e6572600082015250565b60006129c4602083611ca3565b91506129cf8261298e565b602082019050919050565b600060208201905081810360008301526129f3816129b7565b9050919050565b7f4552433732313a20617070726f766520746f2063616c6c657200000000000000600082015250565b6000612a30601983611ca3565b9150612a3b826129fa565b602082019050919050565b60006020820190508181036000830152612a5f81612a23565b9050919050565b60006060820190508181036000830152612a808186611cef565b9050612a8f6020830185611ef5565b612a9c6040830184611ef5565b949350505050565b7f4552433732313a207472616e7366657220746f206e6f6e20455243373231526560008201527f63656976657220696d706c656d656e7465720000000000000000000000000000602082015250565b6000612b00603283611ca3565b9150612b0b82612aa4565b604082019050919050565b60006020820190508181036000830152612b2f81612af3565b9050919050565b7f45524337323155524953746f726167653a2055524920736574206f66206e6f6e60008201527f6578697374656e7420746f6b656e000000000000000000000000000000000000602082015250565b6000612b92602e83611ca3565b9150612b9d82612b36565b604082019050919050565b60006020820190508181036000830152612bc181612b85565b9050919050565b60008190508160005260206000209050919050565b60006020601f8301049050919050565b600082821b905092915050565b600060088302612c2a7fffffffffffffffffffffffffffffffffffffffffffffffffffffffffffffffff82612bed565b612c348683612bed565b95508019841693508086168417925050509392505050565b6000819050919050565b6000612c71612c6c612c6784611d4a565b612c4c565b611d4a565b9050919050565b6000819050919050565b612c8b83612c56565b612c9f612c9782612c78565b848454612bfa565b825550505050565b600090565b612cb4612ca7565b612cbf818484612c82565b505050565b5b81811015612ce357612cd8600082612cac565b600181019050612cc5565b5050565b601f821115612d2857612cf981612bc8565b612d0284612bdd565b81016020851015612d11578190505b612d25612d1d85612bdd565b830182612cc4565b50505b505050565b600082821c905092915050565b6000612d4b60001984600802612d2d565b1980831691505092915050565b6000612d648383612d3a565b9150826002028217905092915050565b612d7d82611c98565b67ffffffffffffffff811115612d9657612d95611f95565b5b612da082546122af565b612dab828285612ce7565b600060209050601f831160018114612dde5760008415612dcc578287015190505b612dd68582612d58565b865550612e3e565b601f198416612dec86612bc8565b60005b82811015612e1457848901518255600182019150602085019450602081019050612def565b86831015612e315784890151612e2d601f891682612d3a565b8355505b6001600288020188555050505b505050505050565b6000612e5182611d4a565b9150612e5c83611d4a565b9250828203905081811115612e7457612e73612594565b5b92915050565b600081519050919050565b600082825260208201905092915050565b6000612ea182612e7a565b612eab8185612e85565b9350612ebb818560208601611cb4565b612ec481611cde565b840191505092915050565b6000608082019050612ee46000830187611ddf565b612ef16020830186611ddf565b612efe6040830185611ef5565b8181036060830152612f108184612e96565b905095945050505050565b600081519050612f2a81611c09565b92915050565b600060208284031215612f4657612f45611bd3565b5b6000612f5484828501612f1b565b91505092915050565b7f4552433732313a206d696e7420746f20746865207a65726f2061646472657373600082015250565b6000612f93602083611ca3565b9150612f9e82612f5d565b602082019050919050565b60006020820190508181036000830152612fc281612f86565b9050919050565b7f4552433732313a20746f6b656e20616c7265616479206d696e74656400000000600082015250565b6000612fff601c83611ca3565b915061300a82612fc9565b602082019050919050565b6000602082019050818103600083015261302e81612ff2565b905091905056fe68747470733a2f2f76616363756d2e73332e61702d736f7574682d312e616d617a6f6e6177732e636f6d2fa264697066735822122063de4619b0b2ed602e5681707fdbac5f63b7f214d0dd7b133b76a15cc1ab5c2e64736f6c63430008110033",
  "immutableReferences": {},
  "source": "// SPDX-License-Identifier: MIT\npragma solidity ^0.8.9;\n\nimport \"@openzeppelin/contracts/token/ERC721/ERC721.sol\";\nimport \"@openzeppelin/contracts/token/ERC721/extensions/ERC721URIStorage.sol\";\nimport \"@openzeppelin/contracts/access/Ownable.sol\";\nimport \"@openzeppelin/contracts/utils/Counters.sol\";\nimport \"@ganache/console.log/console.sol\";\n\ncontract Quillacious is ERC721, ERC721URIStorage, Ownable {\n    using Counters for Counters.Counter;\n\n    Counters.Counter private _tokenIdCounter;\n\n    constructor() ERC721(\"Quillacious\", \"QWL\") {}\n\n    function _baseURI() internal pure override returns (string memory) {\n        return \"https://vaccum.s3.ap-south-1.amazonaws.com/\";\n    }\n\n    function safeMint(address to, string memory uri) public onlyOwner {\n        uint256 tokenId = _tokenIdCounter.current();\n        _tokenIdCounter.increment();\n        _safeMint(to, tokenId);\n        _setTokenURI(tokenId, uri);\n    }\n\n    // The following functions are overrides required by Solidity.\n\n    function _burn(uint256 tokenId) internal override(ERC721, ERC721URIStorage) {\n        super._burn(tokenId);\n    }\n\n    function tokenURI(uint256 tokenId)\n        public\n        pure\n        override(ERC721, ERC721URIStorage)\n        returns (string memory)\n    {\n        // return super.tokenURI(tokenId);\n        return string(abi.encodePacked(_baseURI(),\"quill_\",(tokenId+1),'.json'));\n    }\n\n\n    function buyToken() public payable{\n        uint256 tokenId = _tokenIdCounter.current();\n        console.log(\"got here\",tokenId,msg.value);\n        require(msg.value==tokenId*0.001 ether,\"wrong amount of funds\");\n        _tokenIdCounter.increment();\n        _safeMint(msg.sender,tokenId);\n    }\n}",
  "sourcePath": "/home/ashutosh/Downloads/ethereum/nft-project/truffle/contracts/Quillacious721.sol",
  "compiler": {
    "name": "solc",
    "version": "0.8.17+commit.8df45f5f.Emscripten.clang"
  },
  "schemaVersion": "3.4.11",
  "updatedAt": "2023-01-25T03:48:52.942Z",
  "networkType": "ethereum",
  "devdoc": {
    "kind": "dev",
    "methods": {
      "approve(address,uint256)": {
        "details": "See {IERC721-approve}."
      },
      "balanceOf(address)": {
        "details": "See {IERC721-balanceOf}."
      },
      "getApproved(uint256)": {
        "details": "See {IERC721-getApproved}."
      },
      "isApprovedForAll(address,address)": {
        "details": "See {IERC721-isApprovedForAll}."
      },
      "name()": {
        "details": "See {IERC721Metadata-name}."
      },
      "owner()": {
        "details": "Returns the address of the current owner."
      },
      "ownerOf(uint256)": {
        "details": "See {IERC721-ownerOf}."
      },
      "renounceOwnership()": {
        "details": "Leaves the contract without owner. It will not be possible to call `onlyOwner` functions anymore. Can only be called by the current owner. NOTE: Renouncing ownership will leave the contract without an owner, thereby removing any functionality that is only available to the owner."
      },
      "safeTransferFrom(address,address,uint256)": {
        "details": "See {IERC721-safeTransferFrom}."
      },
      "safeTransferFrom(address,address,uint256,bytes)": {
        "details": "See {IERC721-safeTransferFrom}."
      },
      "setApprovalForAll(address,bool)": {
        "details": "See {IERC721-setApprovalForAll}."
      },
      "supportsInterface(bytes4)": {
        "details": "See {IERC165-supportsInterface}."
      },
      "symbol()": {
        "details": "See {IERC721Metadata-symbol}."
      },
      "transferFrom(address,address,uint256)": {
        "details": "See {IERC721-transferFrom}."
      },
      "transferOwnership(address)": {
        "details": "Transfers ownership of the contract to a new account (`newOwner`). Can only be called by the current owner."
      }
    },
    "version": 1
  },
  "userdoc": {
    "kind": "user",
    "methods": {},
    "version": 1
  }
}